{
  "_format": "hh-sol-artifact-1",
  "contractName": "Game",
  "sourceName": "contracts/Game.sol",
  "abi": [
    {
      "inputs": [],
      "stateMutability": "nonpayable",
      "type": "constructor"
    },
    {
      "anonymous": false,
      "inputs": [
        {
          "indexed": false,
          "internalType": "uint256",
          "name": "rewards",
          "type": "uint256"
        }
      ],
      "name": "ContributeRewards",
      "type": "event"
    },
    {
      "anonymous": false,
      "inputs": [
        {
          "indexed": false,
          "internalType": "uint256",
          "name": "countPlayers",
          "type": "uint256"
        }
      ],
      "name": "JoinGame",
      "type": "event"
    },
    {
      "anonymous": false,
      "inputs": [
        {
          "indexed": false,
          "internalType": "address",
          "name": "winner",
          "type": "address"
        },
        {
          "indexed": false,
          "internalType": "uint256",
          "name": "amount",
          "type": "uint256"
        }
      ],
      "name": "RewardsWithdrew",
      "type": "event"
    },
    {
      "anonymous": false,
      "inputs": [
        {
          "indexed": false,
          "internalType": "uint256",
          "name": "gameId",
          "type": "uint256"
        }
      ],
      "name": "StartNewGame",
      "type": "event"
    },
    {
      "inputs": [
        {
          "internalType": "uint256",
          "name": "gameId",
          "type": "uint256"
        }
      ],
      "name": "contributeRewards",
      "outputs": [],
      "stateMutability": "payable",
      "type": "function"
    },
    {
      "inputs": [
        {
          "internalType": "uint256",
          "name": "gameId",
          "type": "uint256"
        },
        {
          "internalType": "address",
          "name": "_winner",
          "type": "address"
        }
      ],
      "name": "declareWinner",
      "outputs": [],
      "stateMutability": "nonpayable",
      "type": "function"
    },
    {
      "inputs": [
        {
          "internalType": "uint256",
          "name": "",
          "type": "uint256"
        }
      ],
      "name": "games",
      "outputs": [
        {
          "internalType": "uint256",
          "name": "countPlayers",
          "type": "uint256"
        },
        {
          "internalType": "bool",
          "name": "isEnrolling",
          "type": "bool"
        },
        {
          "internalType": "uint256",
          "name": "rewards",
          "type": "uint256"
        }
      ],
      "stateMutability": "view",
      "type": "function"
    },
    {
      "inputs": [
        {
          "internalType": "uint256",
          "name": "gameId",
          "type": "uint256"
        },
        {
          "internalType": "address",
          "name": "player",
          "type": "address"
        }
      ],
      "name": "hasPlayer",
      "outputs": [
        {
          "internalType": "bool",
          "name": "",
          "type": "bool"
        }
      ],
      "stateMutability": "view",
      "type": "function"
    },
    {
      "inputs": [
        {
          "internalType": "uint256",
          "name": "gameId",
          "type": "uint256"
        }
      ],
      "name": "joinGame",
      "outputs": [],
      "stateMutability": "payable",
      "type": "function"
    },
    {
      "inputs": [],
      "name": "name",
      "outputs": [
        {
          "internalType": "string",
          "name": "",
          "type": "string"
        }
      ],
      "stateMutability": "view",
      "type": "function"
    },
    {
      "inputs": [],
      "name": "owner",
      "outputs": [
        {
          "internalType": "address payable",
          "name": "",
          "type": "address"
        }
      ],
      "stateMutability": "view",
      "type": "function"
    },
    {
      "inputs": [],
      "name": "startNewGame",
      "outputs": [],
      "stateMutability": "nonpayable",
      "type": "function"
    },
    {
      "inputs": [
        {
          "internalType": "uint256",
          "name": "gameId",
          "type": "uint256"
        }
      ],
      "name": "stopEnroll",
      "outputs": [],
      "stateMutability": "nonpayable",
      "type": "function"
    },
    {
      "inputs": [
        {
          "internalType": "uint256",
          "name": "gameId",
          "type": "uint256"
        }
      ],
      "name": "winningBalance",
      "outputs": [
        {
          "internalType": "uint256",
          "name": "",
          "type": "uint256"
        }
      ],
      "stateMutability": "view",
      "type": "function"
    },
    {
      "inputs": [
        {
          "internalType": "uint256",
          "name": "gameId",
          "type": "uint256"
        }
      ],
      "name": "withdraw",
      "outputs": [],
      "stateMutability": "payable",
      "type": "function"
    },
    {
      "stateMutability": "payable",
      "type": "receive"
    }
  ],
  "bytecode": "0x60806040526040518060400160405280600981526020017f47616d6520446170700000000000000000000000000000000000000000000000815250600190816200004a91906200038e565b50600160025560086003553480156200006257600080fd5b50600080600060025481526020019081526020016000206002018190555060008060006002548152602001908152602001600020600401819055506001600080600254815260200190815260200160002060030160006101000a81548160ff02191690831515021790555033600460006101000a81548173ffffffffffffffffffffffffffffffffffffffff021916908373ffffffffffffffffffffffffffffffffffffffff16021790555062000475565b600081519050919050565b7f4e487b7100000000000000000000000000000000000000000000000000000000600052604160045260246000fd5b7f4e487b7100000000000000000000000000000000000000000000000000000000600052602260045260246000fd5b600060028204905060018216806200019657607f821691505b602082108103620001ac57620001ab6200014e565b5b50919050565b60008190508160005260206000209050919050565b60006020601f8301049050919050565b600082821b905092915050565b600060088302620002167fffffffffffffffffffffffffffffffffffffffffffffffffffffffffffffffff82620001d7565b620002228683620001d7565b95508019841693508086168417925050509392505050565b6000819050919050565b6000819050919050565b60006200026f6200026962000263846200023a565b62000244565b6200023a565b9050919050565b6000819050919050565b6200028b836200024e565b620002a36200029a8262000276565b848454620001e4565b825550505050565b600090565b620002ba620002ab565b620002c781848462000280565b505050565b5b81811015620002ef57620002e3600082620002b0565b600181019050620002cd565b5050565b601f8211156200033e576200030881620001b2565b6200031384620001c7565b8101602085101562000323578190505b6200033b6200033285620001c7565b830182620002cc565b50505b505050565b600082821c905092915050565b6000620003636000198460080262000343565b1980831691505092915050565b60006200037e838362000350565b9150826002028217905092915050565b620003998262000114565b67ffffffffffffffff811115620003b557620003b46200011f565b5b620003c182546200017d565b620003ce828285620002f3565b600060209050601f831160018114620004065760008415620003f1578287015190505b620003fd858262000370565b8655506200046d565b601f1984166200041686620001b2565b60005b82811015620004405784890151825560018201915060208501945060208101905062000419565b868310156200046057848901516200045c601f89168262000350565b8355505b6001600288020188555050505b505050505050565b6111e080620004856000396000f3fe6080604052600436106100a05760003560e01c8063482d51e011610064578063482d51e0146102005780638da5cb5b14610217578063acb1e99514610242578063b1d8a3f01461027f578063e374b0971461029b578063efaa55a0146102c45761010f565b806306fdde03146101145780630a1641b81461013f578063117a5b901461017c5780632c278074146101bb5780632e1a7d4d146101e45761010f565b3661010f57600460009054906101000a900473ffffffffffffffffffffffffffffffffffffffff1673ffffffffffffffffffffffffffffffffffffffff166108fc479081150290604051600060405180830381858888f1935050505015801561010d573d6000803e3d6000fd5b005b600080fd5b34801561012057600080fd5b506101296102e0565b6040516101369190610bd5565b60405180910390f35b34801561014b57600080fd5b5061016660048036038101906101619190610c32565b61036e565b6040516101739190610c6e565b60405180910390f35b34801561018857600080fd5b506101a3600480360381019061019e9190610c32565b6103ca565b6040516101b293929190610ca4565b60405180910390f35b3480156101c757600080fd5b506101e260048036038101906101dd9190610c32565b610401565b005b6101fe60048036038101906101f99190610c32565b61049b565b005b34801561020c57600080fd5b506102156105cc565b005b34801561022357600080fd5b5061022c610686565b6040516102399190610d1c565b60405180910390f35b34801561024e57600080fd5b5061026960048036038101906102649190610d75565b6106ac565b6040516102769190610db5565b60405180910390f35b61029960048036038101906102949190610c32565b610781565b005b3480156102a757600080fd5b506102c260048036038101906102bd9190610d75565b61084d565b005b6102de60048036038101906102d99190610c32565b610906565b005b600180546102ed90610dff565b80601f016020809104026020016040519081016040528092919081815260200182805461031990610dff565b80156103665780601f1061033b57610100808354040283529160200191610366565b820191906000526020600020905b81548152906001019060200180831161034957829003601f168201915b505050505081565b600080600083815260200190815260200160002060010160003373ffffffffffffffffffffffffffffffffffffffff1673ffffffffffffffffffffffffffffffffffffffff168152602001908152602001600020549050919050565b60006020528060005260406000206000915090508060020154908060030160009054906101000a900460ff16908060040154905083565b6001151560008083815260200190815260200160002060030160009054906101000a900460ff1615151461046a576040517f08c379a000000000000000000000000000000000000000000000000000000000815260040161046190610ea2565b60405180910390fd5b600080600083815260200190815260200160002060030160006101000a81548160ff02191690831515021790555050565b6104a581336106ac565b6104e4576040517f08c379a00000000000000000000000000000000000000000000000000000000081526004016104db90610f0e565b60405180910390fd5b60006104ef8261036e565b9050600080600084815260200190815260200160002060010160003373ffffffffffffffffffffffffffffffffffffffff1673ffffffffffffffffffffffffffffffffffffffff168152602001908152602001600020819055503373ffffffffffffffffffffffffffffffffffffffff166108fc829081150290604051600060405180830381858888f1935050505015801561058f573d6000803e3d6000fd5b507e486738228e3d6a68452c903d4afdd1a23861577d864a337ae8d82063dd2d5233826040516105c0929190610f3d565b60405180910390a15050565b60016002546105db9190610f95565b600281905550600080600060025481526020019081526020016000206004018190555060008060006002548152602001908152602001600020600201819055506001600080600254815260200190815260200160002060030160006101000a81548160ff0219169083151502179055507f83b572031650a01ae7dc9b48d4d1aba9e0b812e2a7c978a585b938bc8efeed9a60025460405161067c9190610c6e565b60405180910390a1565b600460009054906101000a900473ffffffffffffffffffffffffffffffffffffffff1681565b600080600090505b60008085815260200190815260200160002060000180549050811015610775578273ffffffffffffffffffffffffffffffffffffffff16600080868152602001908152602001600020600001828154811061071257610711610fc9565b5b9060005260206000200160009054906101000a900473ffffffffffffffffffffffffffffffffffffffff1673ffffffffffffffffffffffffffffffffffffffff160361076257600191505061077b565b808061076d90610ff8565b9150506106b4565b50600090505b92915050565b600034116107c4576040517f08c379a00000000000000000000000000000000000000000000000000000000081526004016107bb906110b2565b60405180910390fd5b34600080838152602001908152602001600020600401546107e59190610f95565b600080838152602001908152602001600020600401819055507f4bf201fbe3cb318f183381358ff6f1051c64009fa6b8050720bc0b9e218c47d5600080838152602001908152602001600020600401546040516108429190610c6e565b60405180910390a150565b61085782826106ac565b610896576040517f08c379a000000000000000000000000000000000000000000000000000000000815260040161088d90610f0e565b60405180910390fd5b6000808381526020019081526020016000206004015460008084815260200190815260200160002060010160003373ffffffffffffffffffffffffffffffffffffffff1673ffffffffffffffffffffffffffffffffffffffff168152602001908152602001600020819055505050565b6001151560008083815260200190815260200160002060030160009054906101000a900460ff1615151461096f576040517f08c379a000000000000000000000000000000000000000000000000000000000815260040161096690610ea2565b60405180910390fd5b60008082815260200190815260200160002060020154600354116109c8576040517f08c379a00000000000000000000000000000000000000000000000000000000081526004016109bf9061111e565b60405180910390fd5b60003411610a0b576040517f08c379a0000000000000000000000000000000000000000000000000000000008152600401610a029061118a565b60405180910390fd5b3460008083815260200190815260200160002060040154610a2c9190610f95565b60008083815260200190815260200160002060040181905550600160008083815260200190815260200160002060020154610a679190610f95565b60008083815260200190815260200160002060020181905550600080828152602001908152602001600020600001339080600181540180825580915050600190039060005260206000200160009091909190916101000a81548173ffffffffffffffffffffffffffffffffffffffff021916908373ffffffffffffffffffffffffffffffffffffffff1602179055507fb610018788d1e12d26b80691141b62d2d988a3b42d9c434503b412c1c0dc09d260008083815260200190815260200160002060020154604051610b3a9190610c6e565b60405180910390a150565b600081519050919050565b600082825260208201905092915050565b60005b83811015610b7f578082015181840152602081019050610b64565b60008484015250505050565b6000601f19601f8301169050919050565b6000610ba782610b45565b610bb18185610b50565b9350610bc1818560208601610b61565b610bca81610b8b565b840191505092915050565b60006020820190508181036000830152610bef8184610b9c565b905092915050565b600080fd5b6000819050919050565b610c0f81610bfc565b8114610c1a57600080fd5b50565b600081359050610c2c81610c06565b92915050565b600060208284031215610c4857610c47610bf7565b5b6000610c5684828501610c1d565b91505092915050565b610c6881610bfc565b82525050565b6000602082019050610c836000830184610c5f565b92915050565b60008115159050919050565b610c9e81610c89565b82525050565b6000606082019050610cb96000830186610c5f565b610cc66020830185610c95565b610cd36040830184610c5f565b949350505050565b600073ffffffffffffffffffffffffffffffffffffffff82169050919050565b6000610d0682610cdb565b9050919050565b610d1681610cfb565b82525050565b6000602082019050610d316000830184610d0d565b92915050565b6000610d4282610cdb565b9050919050565b610d5281610d37565b8114610d5d57600080fd5b50565b600081359050610d6f81610d49565b92915050565b60008060408385031215610d8c57610d8b610bf7565b5b6000610d9a85828601610c1d565b9250506020610dab85828601610d60565b9150509250929050565b6000602082019050610dca6000830184610c95565b92915050565b7f4e487b7100000000000000000000000000000000000000000000000000000000600052602260045260246000fd5b60006002820490506001821680610e1757607f821691505b602082108103610e2a57610e29610dd0565b5b50919050565b7f67616d65206861732073746f7070656420616363657074696e6720706c61796560008201527f727320616c726561647900000000000000000000000000000000000000000000602082015250565b6000610e8c602a83610b50565b9150610e9782610e30565b604082019050919050565b60006020820190508181036000830152610ebb81610e7f565b9050919050565b7f4572726f723a20706c6179657220646f6573206e6f7420657869737400000000600082015250565b6000610ef8601c83610b50565b9150610f0382610ec2565b602082019050919050565b60006020820190508181036000830152610f2781610eeb565b9050919050565b610f3781610d37565b82525050565b6000604082019050610f526000830185610f2e565b610f5f6020830184610c5f565b9392505050565b7f4e487b7100000000000000000000000000000000000000000000000000000000600052601160045260246000fd5b6000610fa082610bfc565b9150610fab83610bfc565b9250828201905080821115610fc357610fc2610f66565b5b92915050565b7f4e487b7100000000000000000000000000000000000000000000000000000000600052603260045260246000fd5b600061100382610bfc565b91507fffffffffffffffffffffffffffffffffffffffffffffffffffffffffffffffff820361103557611034610f66565b5b600182019050919050565b7f4572726f723a206d7573742070617920746f20636f6e7472696275746520726560008201527f7761726473000000000000000000000000000000000000000000000000000000602082015250565b600061109c602583610b50565b91506110a782611040565b604082019050919050565b600060208201905081810360008301526110cb8161108f565b9050919050565b7f67616d652069732066756c6c20616c7265616479000000000000000000000000600082015250565b6000611108601483610b50565b9150611113826110d2565b602082019050919050565b60006020820190508181036000830152611137816110fb565b9050919050565b7f4572726f723a206d7573742070617920746f206a6f696e2067616d6500000000600082015250565b6000611174601c83610b50565b915061117f8261113e565b602082019050919050565b600060208201905081810360008301526111a381611167565b905091905056fea264697066735822122073154178bd6d2ae48d0593b2a84d807d5ad956d49ac459ecd70a4fa9ce9d016364736f6c63430008120033",
  "linkReferences": {},
  "deployedLinkReferences": {}
}