{
  "_format": "hh-sol-artifact-1",
  "contractName": "Game",
  "sourceName": "contracts/Game.sol",
  "abi": [
    {
      "inputs": [],
      "stateMutability": "nonpayable",
      "type": "constructor"
    },
    {
      "anonymous": false,
      "inputs": [
        {
          "indexed": false,
          "internalType": "address",
          "name": "player",
          "type": "address"
        },
        {
          "indexed": false,
          "internalType": "uint256",
          "name": "amount",
          "type": "uint256"
        }
      ],
      "name": "BetMade",
      "type": "event"
    },
    {
      "anonymous": false,
      "inputs": [
        {
          "indexed": false,
          "internalType": "address",
          "name": "host",
          "type": "address"
        },
        {
          "indexed": false,
          "internalType": "uint256",
          "name": "amount",
          "type": "uint256"
        }
      ],
      "name": "RewardsIncreased",
      "type": "event"
    },
    {
      "anonymous": false,
      "inputs": [
        {
          "indexed": false,
          "internalType": "address",
          "name": "winner",
          "type": "address"
        },
        {
          "indexed": false,
          "internalType": "uint256",
          "name": "amount",
          "type": "uint256"
        }
      ],
      "name": "RewardsWithdrew",
      "type": "event"
    },
    {
      "anonymous": false,
      "inputs": [
        {
          "indexed": false,
          "internalType": "address",
          "name": "winner",
          "type": "address"
        },
        {
          "indexed": false,
          "internalType": "uint256",
          "name": "amount",
          "type": "uint256"
        }
      ],
      "name": "WinnerAwarded",
      "type": "event"
    },
    {
      "inputs": [
        {
          "internalType": "address",
          "name": "payTo",
          "type": "address"
        }
      ],
      "name": "awardWinner",
      "outputs": [],
      "stateMutability": "nonpayable",
      "type": "function"
    },
    {
      "inputs": [],
      "name": "depositRewards",
      "outputs": [],
      "stateMutability": "payable",
      "type": "function"
    },
    {
      "inputs": [],
      "name": "makeBet",
      "outputs": [],
      "stateMutability": "payable",
      "type": "function"
    },
    {
      "inputs": [],
      "name": "rewards",
      "outputs": [
        {
          "internalType": "uint256",
          "name": "",
          "type": "uint256"
        }
      ],
      "stateMutability": "view",
      "type": "function"
    },
    {
      "inputs": [],
      "name": "withdrawRewards",
      "outputs": [],
      "stateMutability": "nonpayable",
      "type": "function"
    }
  ],
  "bytecode": "0x60806040526658d15e17628000600255600060035534801561002057600080fd5b506001600081905580546001600160a01b031916331790556104a9806100476000396000f3fe60806040526004361061004a5760003560e01c8063152111f71461004f578063409ca41f14610059578063561e91a1146100795780639ec5a89414610081578063c7b8981c146100a9575b600080fd5b6100576100be565b005b34801561006557600080fd5b506100576100743660046103a1565b610137565b610057610237565b34801561008d57600080fd5b5061009760035481565b60405190815260200160405180910390f35b3480156100b557600080fd5b50610057610324565b600260005414156100ea5760405162461bcd60e51b81526004016100e1906103cf565b60405180910390fd5b60026000553460038190556040805133815260208101929092527ffadfc06b2a0981dca0f624f9bd45f571c5c79170f986da6df75f197f72e9064e91015b60405180910390a16001600055565b6002600054141561015a5760405162461bcd60e51b81526004016100e1906103cf565b600260005560035460059061017090600461043e565b61017a919061041e565b6001600160a01b038083166000908152600460205260409020919091556001546003549116906108fc906101b09060059061041e565b6040518115909202916000818181858888f193505050501580156101d8573d6000803e3d6000fd5b50600060038190556001600160a01b03821680825260046020908152604092839020548351928352908201527fd1b693e213ce4bf8034bcd0bf93c8892052c4334939c8354078feb05a6ab71e7910160405180910390a1506001600055565b6002600054141561025a5760405162461bcd60e51b81526004016100e1906103cf565b600260008190555434116102d8576040805162461bcd60e51b81526020600482015260248101919091527f506c65617365207375626d6974207468652061736b696e67207072696365206960448201527f6e206f7264657220746f20636f6d706c6574652074686520707572636861736560648201526084016100e1565b34600360008282546102ea9190610406565b9091555050604080513381523460208201527f1b84841732b5baa9714dd2d98d4f18d381cb77b0afb57a36de22cbea66b84d8b9101610128565b33600081815260046020526040808220805490839055905190929183156108fc02918491818181858888f19350505050158015610365573d6000803e3d6000fd5b5060408051338152602081018390527e486738228e3d6a68452c903d4afdd1a23861577d864a337ae8d82063dd2d52910160405180910390a150565b6000602082840312156103b2578081fd5b81356001600160a01b03811681146103c8578182fd5b9392505050565b6020808252601f908201527f5265656e7472616e637947756172643a207265656e7472616e742063616c6c00604082015260600190565b600082198211156104195761041961045d565b500190565b60008261043957634e487b7160e01b81526012600452602481fd5b500490565b60008160001904831182151516156104585761045861045d565b500290565b634e487b7160e01b600052601160045260246000fdfea2646970667358221220f0c1a94a1a2c1272604e1e32d4b5b2bad85e9db2cc7eca5b99f22cf29cf8166964736f6c63430008040033",
  "linkReferences": {},
  "deployedLinkReferences": {}
}