{
  "_format": "hh-sol-artifact-1",
  "contractName": "TokenFarm",
  "sourceName": "contracts/TokenFarm.sol",
  "abi": [
    {
      "inputs": [
        {
          "internalType": "address",
          "name": "usdcContractAddress",
          "type": "address"
        }
      ],
      "stateMutability": "nonpayable",
      "type": "constructor"
    },
    {
      "inputs": [
        {
          "internalType": "uint256",
          "name": "$USDC",
          "type": "uint256"
        }
      ],
      "name": "Fund",
      "outputs": [],
      "stateMutability": "payable",
      "type": "function"
    },
    {
      "inputs": [],
      "name": "ReceiveFund",
      "outputs": [],
      "stateMutability": "payable",
      "type": "function"
    },
    {
      "inputs": [],
      "name": "USDc",
      "outputs": [
        {
          "internalType": "contract USDC",
          "name": "",
          "type": "address"
        }
      ],
      "stateMutability": "view",
      "type": "function"
    },
    {
      "inputs": [],
      "name": "owner",
      "outputs": [
        {
          "internalType": "address payable",
          "name": "",
          "type": "address"
        }
      ],
      "stateMutability": "view",
      "type": "function"
    },
    {
      "stateMutability": "payable",
      "type": "receive"
    }
  ],
  "bytecode": "0x608060405234801561001057600080fd5b506040516104ad3803806104ad83398101604081905261002f9161005d565b600080546001600160a01b039092166001600160a01b0319928316179055600180549091163317905561008b565b60006020828403121561006e578081fd5b81516001600160a01b0381168114610084578182fd5b9392505050565b6104138061009a6000396000f3fe6080604052600436106100435760003560e01c806327b2dc14146100895780638da5cb5b1461009e578063afcc4ad5146100da578063cb62121e146100fa57600080fd5b36610084576001546040516001600160a01b03909116904780156108fc02916000818181858888f19350505050158015610081573d6000803e3d6000fd5b50005b600080fd5b61009c610097366004610382565b610102565b005b3480156100aa57600080fd5b506001546100be906001600160a01b031681565b6040516001600160a01b03909116815260200160405180910390f35b3480156100e657600080fd5b506000546100be906001600160a01b031681565b61009c610252565b6000546001600160a01b03166323b872dd333061012285620f42406103b2565b6040516001600160e01b031960e086901b1681526001600160a01b0393841660048201529290911660248301526044820152606401602060405180830381600087803b15801561017157600080fd5b505af1158015610185573d6000803e3d6000fd5b505050506040513d601f19601f820116820180604052508101906101a9919061035b565b506000546001546001600160a01b039182169163a9059cbb91166101d084620f42406103b2565b6040516001600160e01b031960e085901b1681526001600160a01b0390921660048301526024820152604401602060405180830381600087803b15801561021657600080fd5b505af115801561022a573d6000803e3d6000fd5b505050506040513d601f19601f8201168201806040525081019061024e919061035b565b5050565b6000546001546040516370a0823160e01b81523060048201526001600160a01b039283169263a9059cbb92169083906370a082319060240160206040518083038186803b1580156102a257600080fd5b505afa1580156102b6573d6000803e3d6000fd5b505050506040513d601f19601f820116820180604052508101906102da919061039a565b6040516001600160e01b031960e085901b1681526001600160a01b0390921660048301526024820152604401602060405180830381600087803b15801561032057600080fd5b505af1158015610334573d6000803e3d6000fd5b505050506040513d601f19601f82011682018060405250810190610358919061035b565b50565b60006020828403121561036c578081fd5b8151801515811461037b578182fd5b9392505050565b600060208284031215610393578081fd5b5035919050565b6000602082840312156103ab578081fd5b5051919050565b60008160001904831182151516156103d857634e487b7160e01b81526011600452602481fd5b50029056fea2646970667358221220f118cede78d8f7e2168553b3531eee956507b9626455cf30e64897352bd4710a64736f6c63430008040033",
  "linkReferences": {},
  "deployedLinkReferences": {}
}